S026000030315F4C697869655F436C6F636B5F41546D65676131365F3134313232322E7372656378
S11300000C942A000C9447000C9447000C9447006D
S11300100C9447000C9447000C9448010C9447003E
S11300200C9447000C9447000C9447000C94470030
S11300300C9447000C9447000C9447000C94470020
S11300400C9447000C9447000C9447000C94470010
S11300500C94470011241FBECFE5D4E0DEBFCDBF12
S113006010E0A0E6B0E0E2E5F3E002C005900D92F6
S1130070A037B107D9F720E0A0E7B0E001C01D9296
S1130080A037B207E1F70E947C010C94A7010C94FD
S11300900000BF92CF92DF92EF92FF920F931F93D3
S11300A0CF93DF9300D000D01F92CDB7DEB75A8331
S11300B06B837C838D83042F8DEC489FF12C11245A
S11300C0F694F694F6949F2D990F892F880F880F34
S11300D0890F081B19E027C02F2D30E0812F012E36
S11300E0000C990B8217930789F4BD80CC80DB80C8
S11300F0EA802B2D4C2D6D2D8E2D0E9432012B2D3F
S11301004C2D6D2D8E2D0E9432010CC020E040E05C
S113011060E080E00E94320120E040E060E080E0A6
S11301200E94320111501123BCF619E027C0202F80
S113013030E0812F012E000C990B8217930789F46C
S1130140CD80DC80EB80FA802C2D4D2D6E2D8F2DF3
S11301500E9432012C2D4D2D6E2D8F2D0E943201C7
S11301600CC020E040E060E080E00E94320120E02A
S113017040E060E080E00E94320111501123BCF69F
S11301800F900F900F900F900F90DF91CF911F91D0
S11301900F91FF90EF90DF90CF90BF9008958F92D2
S11301A09F92AF92BF92CF92EF92FF920F931F93C1
S11301B0CF93DF93CDB7DEB72F970FB6F894DEBF9A
S11301C00FBECDBF49835A836B837C838D83EE82BC
S11301D0FF82088719872A878B869C86AD86BE8610
S11301E0CF860E941C014B855C856D857E858F853D
S11301F00E9449004E815F81688579858A850E94C5
S1130200490049815A816B817C818D810E9449001A
S11302100E9427012F960FB6F894DEBF0FBECDBF04
S1130220DF91CF911F910F91FF90EF90CF90BF90EE
S1130230AF909F908F900895CF93C0E004C080E06A
S11302400E94A001CF5FC430D0F3CF910895CF9323
S1130250C0E004C08FEF0E94A001CF5FC430D0F390
S1130260CF9108951F93CF93DF93C62FD42F122FCE
S1130270806E0E94A001812F0E94A0018D2F0E94F8
S1130280A0018C2F0E94A001DF91CF911F910895AE
S11302901F920F920FB60F9211248F93EF93FF9337
S11302A0E0E6F0E080818F5F808380818C3398F07A
S11302B0E5E6F0E080818F5F8083109260008081AA
S11302C08C3348F0EAE6F0E080818F5F80831092FF
S11302D0650080811082FF91EF918F910F900FBE86
S11302E00F901F9018958CE08EBD80E189BF8BE143
S11302F097EB9BBD8ABD08950E947301789480900A
S1130300600090906100A0906200B0906300C09083
S11303106400E0906500F090660000916700109121
S113032068002091690040916A0050916B006091CF
S11303306C0070916D0080916E000E94CF00DFCF41
S11303408FB901C00000779BFDCF8FB10895F89459
S1050350FFCFD9
S1130352000FFFFFFF000FFFFFFF0C0FFFFFFF0067
S9030000FC
