S01D000030315F4C697869655F436C6F636B5F3134313232322E7372656376
S11300000C942A000C943F000C943F000C943F0085
S11300100C943F000C943F000C9440010C943F005E
S11300200C943F000C943F000C943F000C943F0050
S11300300C943F000C943F000C943F000C943F0040
S11300400C943F000C943F000C943F000C943F0030
S11300500C943F0011241FBECFE5D4E0DEBFCDBF1A
S113006010E0A0E6B0E0E0E4F3E002C005900D92F9
S1130070A037B107D9F70E9474010C949E010C9427
S11300800000BF92CF92DF92EF92FF920F931F93E3
S1130090CF93DF9300D000D01F92CDB7DEB75A8341
S11300A06B837C838D83042F8DEC489FF12C11246A
S11300B0F694F694F6949F2D990F892F880F880F44
S11300C0890F081B19E027C02F2D30E0812F012E46
S11300D0000C990B8217930789F4BD80CC80DB80D8
S11300E0EA802B2D4C2D6D2D8E2D0E942A012B2D57
S11300F04C2D6D2D8E2D0E942A010CC020E040E075
S113010060E080E00E942A0120E040E060E080E0BE
S11301100E942A0111501123BCF619E027C0202F98
S113012030E0812F012E000C990B8217930789F47C
S1130130CD80DC80EB80FA802C2D4D2D6E2D8F2D03
S11301400E942A012C2D4D2D6E2D8F2D0E942A01E7
S11301500CC020E040E060E080E00E942A0120E042
S113016040E060E080E00E942A0111501123BCF6B7
S11301700F900F900F900F900F90DF91CF911F91E0
S11301800F91FF90EF90DF90CF90BF9008958F92E2
S11301909F92AF92BF92CF92EF92FF920F931F93D1
S11301A0CF93DF93CDB7DEB72F970FB6F894DEBFAA
S11301B00FBECDBF49835A836B837C838D83EE82CC
S11301C0FF82088719872A878B869C86AD86BE8620
S11301D0CF860E9414014B855C856D857E858F8555
S11301E00E9441004E815F81688579858A850E94DD
S11301F0410049815A816B817C818D810E9441003B
S11302000E941F012F960FB6F894DEBF0FBECDBF1C
S1130210DF91CF911F910F91FF90EF90CF90BF90FE
S1130220AF909F908F900895CF93C0E004C080E07A
S11302300E949701CF5FC430D0F3CF910895CF933C
S1130240C0E004C08FEF0E949701CF5FC430D0F3A9
S1130250CF9108951F93CF93DF93C62FD42F122FDE
S1130260806E0E949701812F0E9497018D2F0E941A
S113027097018C2F0E949701DF91CF911F910895D0
S11302801F920F920FB60F9211248F93EF93FF9347
S1130290E0E6F0E080818F5F808380818B3398F08B
S11302A0E5E6F0E080818F5F8083109260008081BA
S11302B08B3348F0EAE6F0E080818F5F8083109210
S11302C0650080811082FF91EF918F910F900FBE96
S11302D00F901F9018958CE08EBD80E189BF8BE153
S11302E097EB9BBD8ABD08950E946B0180906000CE
S11302F090906100A0906200B0906300C090640090
S1130300E0906500F090660000916700109168002D
S11303102091690040916A0050916B0060916C00DB
S113032070916D0080916E000E94C700DFCF8FB97D
S113033001C00000779BFDCF8FB10895F894FFCFE3
S1130340000FFFFFFF000FFFFFFF0C0FFFFFFF0079
S9030000FC
