:100000000C942A000C9434000C9434000C943400AA
:100010000C9434000C9434000C9436000C9434008E
:100020000C9434000C9434000C9434000C94340080
:100030000C9434000C9434000C9434000C94340070
:100040000C9434000C9434000C9434000C94340060
:100050000C94340011241FBECFE5D4E0DEBFCDBF29
:100060000E9454000C945A000C9400001F920F92AE
:100070000FB60F9211248F939F9395B381E0892738
:1000800085BB9F918F910F900FBE0F901F90189579
:1000900081E084BB08958CE08EBD80E189BF8BE157
:1000A00097EB9BBD8ABD08950E9448000E944B00BB
:0800B0007894FFCFF894FFCF14
:00000001FF
