:100000000C943E000C9450000C9450000C94500042
:100010000C9450000C9450000C9450000C94500020
:100020000C9481000C9450000C9450000C945000DF
:100030000C9450000C9450000C9450000C94500000
:100040000C9450000C9450000C9450000C945000F0
:100050000C9450000C9450000C9450000C945000E0
:100060000C9450000C9450000C9450000C945000D0
:100070000C9450000C9450000C94500011241FBE9E
:10008000CFEFCDBFDFE3DEBF2CE3A0E0BCE301C0D8
:100090001D92A230B207E1F70E94C0000C940B0140
:1000A0000C9400000E94EE000895CF93C0E004C0BD
:1000B00080E00E94FF00CF5FC430D0F3CF9108955D
:1000C000CF93C0E004C08FEF0E94FF00CF5FC43029
:1000D000D0F3CF9108951F93CF93DF93C62FD42FE2
:1000E000122F806E0E94FF00812F0E94FF008D2F33
:1000F0000E94FF008C2F0E94FF00DF91CF911F9183
:1001000008951F920F920FB60F9211248F93809132
:10011000013C8F5F8093013C8A3068F08091003C05
:100120008F5F8093003C1092013C8091003C8A30AC
:1001300010F01092003C81E080930B0A8F910F9099
:100140000FBE0F901F90189588ED84BF109260002D
:100150008091630084FFFCCF88ED84BFE0E6F0E08F
:10016000118282E0808B0895E0E0FAE082E19AE774
:1001700086A397A381E0828711828BE08083089514
:100180000E94A4000E94B4000E94520078940E9431
:100190005500C0E01EC08091003CC8130DC02FEF79
:1001A0004FEF6FEF81E00E946B002FEF4FEF6FEF8B
:1001B00081E00E946B000CC020E040E060E080E045
:1001C0000E946B0020E040E060E080E00E946B0055
:1001D000CF5FCA3000F30E946000D9CFE0E0F2E0C8
:1001E000818184608183E0E4F4E0808184608083A5
:1001F00080818160808385E38093200808958093C7
:100200002408809123088823E4F7E0E2F8E080E8FE
:0A021000838384810895F894FFCFE2
:00000001FF
