:100000000C942A000C943C000C943C000C943C0092
:100010000C943C000C943C000C9471000C943C003B
:100020000C943C000C943C000C943C000C943C0060
:100030000C943C000C943C000C943C000C943C0050
:100040000C943C000C943C000C943C000C943C0040
:100050000C943C0011241FBECFE5D4E0DEBFCDBF21
:1000600020E0A0E6B0E001C01D92A136B207E1F7A2
:100070000E9492000C9421010C94000020E041E0C9
:1000800060E081E00E94CD000895CF93C0E004C0FD
:1000900080E00E941A01CF5FC430D0F3CF91089561
:1000A000CF93C0E004C08FEF0E941A01CF5FC4302D
:1000B000D0F3CF9108951F93CF93DF93C62FD42F02
:1000C000122F806E0E941A01812F0E941A018D2F1B
:1000D0000E941A018C2F0E941A01DF91CF911F916B
:1000E00008951F920F920FB60F9211248F939F9332
:1000F0008091600091E0980F909360008A3010F03A
:10010000109260009F918F910F900FBE0F901F90E3
:1001100018958CE08EBD80E189BF8BE197EB9BBD8C
:100120008ABD08950E943E000E9489007894D0E024
:100130000E944500C0E01CC0DC130DC020E040E080
:100140006FEF8FE00E945B0020E040E06FEF8FE0F8
:100150000E945B000CC020E040E060E080E00E9474
:100160005B0020E040E060E080E00E945B00CF5F49
:10017000CA3010F381E08D0FD93011F0D82F01C0B3
:10018000D0E00E9450002FEF8EE994E22150804091
:100190009040E1F700C00000CBCF0F931F93CF93A7
:1001A000DF9397B39F7A97BB98B3906598BB91E024
:1001B0009EB993E09DB99DB18170C82F80E0D82F82
:1001C000C295D295D07FDC27C07FDC27C92BCDB963
:1001D0008DB1A62FA170B0E0AA0FBB1FA295B2955A
:1001E000B07FBA27A07FBA27A82BADB98DB1042F55
:1001F000017010E0000F111F000F111F000F111FE1
:10020000E22FE170F0E0EE0FFF1FEE0FFF1FE02B7B
:10021000E82BEDB98DB180648DB987B3806F87BB52
:100220006C9902C08FEF01C080E0DF91CF911F91E8
:100230000F9108958FB901C00000779BFDCF8FB15A
:060240000895F894FFCFC1
:00000001FF
