S017000030335F506C6174696E656E746573742E7372656350
S11300000C942A000C943C000C943C000C943C008E
S11300100C943C000C943C000C9471000C943C0037
S11300200C943C000C943C000C943C000C943C005C
S11300300C943C000C943C000C943C000C943C004C
S11300400C943C000C943C000C943C000C943C003C
S11300500C943C0011241FBECFE5D4E0DEBFCDBF1D
S113006020E0A0E6B0E001C01D92A136B207E1F79E
S11300700E9495000C941B010C94000020E041E0C8
S113008060E081E00E94C8000895CF93C0E004C0FE
S113009080E00E941401CF5FC430D0F3CF91089563
S11300A0CF93C0E004C08FEF0E941401CF5FC4302F
S11300B0D0F3CF9108951F93CF93DF93C62FD42FFE
S11300C0122F806E0E941401812F0E9414018D2F23
S11300D00E9414018C2F0E941401DF91CF911F9173
S11300E008951F920F920FB60F9211248F939F932E
S11300F095B381E0892785BB809160008F5F8093F1
S113010060008A3010F0109260009F918F910F90E0
S11301100FBE0F901F9018958CE08EBD80E189BFB3
S11301208BE197EB9BBD8ABD089581E084BB0E945F
S11301303E000E948C0078940E944500D0E023C0C9
S113014080916000C8130DC020E040E06FEF81E0B3
S11301500E945B0020E040E06FEF81E00E945B00C2
S11301600CC020E040E060E080E00E945B0020E002
S113017040E060E080E00E945B00CF5F01C0C0E02F
S1130180CA30F0F2DF5FD630D0F30E945000D4CFF3
S11301900F931F93CF93DF9397B39F7A97BB98B333
S11301A0906598BB91E09EB99DB99DB18170C82FAF
S11301B080E0D82FC295D295D07FDC27C07FDC2782
S11301C0C92BCDB98DB1A62FA170B0E0AA0FBB1F6A
S11301D0A295B295B07FBA27A07FBA27A82BADB954
S11301E08DB1042F017010E0000F111F000F111FBB
S11301F0000F111FE22FE170F0E0EE0FFF1FEE0F72
S1130200FF1FE02BE82BEDB98DB180648DB987B366
S1130210806F87BB6C9902C08FEF01C080E0DF91D3
S1130220CF911F910F9108958FB901C00000779B62
S10D0230FDCF8FB10895F894FFCFBD
S9030000FC
