:100000000C9444000C9461000C9461000C94610009
:100010000C9461000C9461000C9461000C946100DC
:100020000C9422010C9461000C9461000C9461000A
:100030000C9461000C9461000C9461000C946100BC
:100040000C9461000C9461000C9461000C946100AC
:100050000C9461000C9461000C9461000C9461009C
:100060000C9461000C9461000C9461000C9461008C
:100070000C9461000C9461000C9461006364696EDF
:100080006F70737578585B0011241FBECFEFCDBF22
:10009000DFE3DEBF1CE3A0E0BCE3EAE2F1E102C083
:1000A00005900D92AE31B107D9F72CE3AEE1BCE378
:1000B00001C01D92A532B207E1F70E9475010C94B0
:1000C0007A080C9400000E94F3000895FF920F93A9
:1000D0001F93CF93DF93EC01F8800DECF09EF12C91
:1000E0001124F694F694F6949881909F012D112492
:1000F000069506950695000F802F880F880F080F2C
:10010000901B092F10E023C0202F30E0812F012EFB
:10011000000C990B8217930769F42C814B816A813B
:1001200089810E940C012C814B816A8189810E9406
:100130000C010CC020E040E060E080E00E940C0177
:1001400020E040E060E080E00E940C011F5F1A3078
:10015000DCF210E023C02F2D30E0812F012E000CA7
:10016000990B8217930769F42C814B816A818981ED
:100170000E940C012C814B816A8189810E940C01B3
:100180000CC020E040E060E080E00E940C0120E034
:1001900040E060E080E00E940C011F5F1A30DCF25A
:1001A000DF91CF911F910F91FF900895EF92FF92F1
:1001B0000F931F93CF93DF93EC018B017A010E9481
:1001C000F600C7010E946600C8010E946600CE01C9
:1001D0000E9466000E940101DF91CF911F910F9153
:1001E000FF90EF9008950E94DB010895CF93C0E047
:1001F00004C080E00E94EC01CF5FC430D0F3CF9107
:100200000895CF93C0E004C08FEF0E94EC01CF5F50
:10021000C430D0F3CF9108951F93CF93DF93C62FAF
:10022000D42F122F806E0E94EC01812F0E94EC01CE
:100230008D2F0E94EC018C2F0E94EC01DF91CF9159
:100240001F9108951F920F920FB60F9211248F9352
:10025000EF93FF9380911E3C8F5F80931E3C8A300A
:10026000E8F0E0E0FCE380818F5F808310921E3C29
:1002700080818C3398F0E5E0FCE380818F5F8083A0
:100280001092003C80818C3348F0EAE0FCE38081EE
:100290008F5F80831092053C8081108281E0809383
:1002A0000B0AFF91EF918F910F900FBE0F901F904F
:1002B000189588ED84BF109260008091630084FFE0
:1002C000FCCF88ED84BFE0E6F0E0118282E0808B15
:1002D0000895E0E0FAE082E19AE786A397A381E03F
:1002E000828711828BE080830895CF93DF93CDB70F
:1002F000DEB72797CDBFDEBF0E9459010E94F801EB
:1003000088EF90E99F938F930E94A80219820F9023
:100310000F9010E03AC08EE290E00E94BE02CE0143
:1003200001960E941E02813031F58EE091E99F9383
:100330008F930E94A802CE0102969F938F930296FC
:100340009F938F9302969F938F938EE191E99F9352
:100350008F930E94C502CDBFDEBF019711F00E94AE
:1003600056028E8180930A3C8C818093053C8A8161
:100370008093003C0CC03FEF88E09DE3315080400B
:100380009040E1F700C000001F5F1A3020F20E9489
:1003900069010E946300789440E05CE365E07CE3DF
:1003A0008AE09CE30E94D60087E893E10197F1F789
:1003B00000C00000F1CFE0E0F2E081818460818341
:1003C000E0E4F4E0808184608083808181608083C8
:1003D00085E3809320080895809324088091230862
:1003E0008823E4F7E0E2F8E080E8838384810895DD
:1003F000E0E2F4E08081877F808380818460808375
:10040000E0E0F8E08DE890E2808791878681806C5B
:100410008683EFE1FCE38FE09CE382839383808318
:10042000918308959091040895FFFCCF8093020872
:1004300080E008950E94120290E00895FC019091DE
:10044000040899232CF480910008808381E00895AA
:1004500080E008959C0190910408992344F4F901E7
:100460008091000880830E94120281E0089580E05C
:1004700008950F931F93CF93DF931F92CDB7DEB7ED
:100480008C01CE0101960E942A028823D1F3F80143
:10049000808389810F90DF91CF911F910F910895F3
:1004A00080E090E00E94390290E00895CF93DF93BE
:1004B000CFE1DCE3888199810E946502888199817E
:1004C0000E946A02DF91CF910895FC0193819F7C85
:1004D00093830895CF93DF93EC012B8120FF33C0EA
:1004E00026FF0AC02F7B2B838E819F8101968E83EE
:1004F0009F838A8190E029C022FF0FC0E881F981A3
:100500008081082E000C990B009719F420622B8330
:100510001AC03196E883F9830EC0EA85FB850995F8
:1005200097FF09C02B81019611F080E201C080E1A4
:10053000822B8B8308C02E813F812F5F3F4F2E83FC
:100540003F83992702C08FEF9FEFDF91CF910895EE
:10055000A0E0B0E0EEEAF2E00C945908AE014B5F87
:100560005F4FFA0161917191AF018091213C9091AF
:10057000223C0E94DB02E2E00C9472086091213C74
:100580007091223C0E9493070895A0E0B0E0EBEC4C
:10059000F2E00C945908AE014B5F5F4FFA01619194
:1005A0007191AF0180911F3C9091203C0E945806B0
:1005B000E2E00C947208ABE0B0E0E1EEF2E00C9403
:1005C00049086C017B018A01FC0116821782838134
:1005D00081FFCCC1CE0101963C01F6019381F70168
:1005E00093FD859193FF81917F01882309F4BAC11E
:1005F000853239F493FD859193FF81917F01853296
:1006000029F4B60190E00E949307E7CF912C212CAA
:10061000312CFFE1F315D8F08B3279F038F48032C9
:1006200079F08332A1F4232D20611DC08D3261F059
:10063000803369F4232D216016C0832D8260382E0B
:10064000E32DE4603E2E2AC0F32DF8601DC037FC78
:100650002DC020ED280F2A3040F08E32B9F436FC40
:1006600081C1232D2064322E19C036FE06C08AE0D7
:10067000989E200D1124922E11C0EAE02E9E200D8E
:100680001124222EF32DF0623F2E08C08C3621F467
:10069000832D8068382E02C0883641F4F70193FD1F
:1006A000859193FF81917F018111B3CF982F9F7D19
:1006B0009554933028F40C5F1F4F9FE399830DC02E
:1006C000833631F0833771F0833509F059C021C08A
:1006D000F801808189830E5F1F4F88248394912CB9
:1006E000530113C02801F2E04F0E511CF801A08005
:1006F000B18036FE03C0692D70E002C06FEF7FEF5E
:10070000C5010E9488074C018201F32DFF773F2E1F
:1007100016C0280122E0420E511CF801A080B180D1
:1007200036FE03C0692D70E002C06FEF7FEFC50198
:100730000E947D074C01F32DF0683F2E820133FCAF
:100740001BC0822D90E088169906B0F4B60180E2B5
:1007500090E00E9493072A94F4CFF50137FC85912D
:1007600037FE81915F01B60190E00E94930721104E
:100770002A9421E0821A91088114910471F7E8C04B
:10078000843611F0893641F5F80137FE07C06081E3
:100790007181828193810C5F1F4F08C060817181DC
:1007A000072E000C880B990B0E5F1F4FF32DFF7661
:1007B0003F2E97FF09C090958095709561957F4F6A
:1007C0008F4F9F4FF0683F2E2AE030E0A3010E9438
:1007D000E807882E861845C0853731F4232D2F7EF3
:1007E000B22E2AE030E025C0932D997FB92E8F36A6
:1007F000C1F018F4883579F0B5C0803719F0883722
:1008000021F0B0C0E92FE061BE2EB4FE0DC0FB2D7B
:10081000F460BF2E09C034FE0AC0292F2660B22E14
:1008200006C028E030E005C020E130E002C020E151
:1008300032E0F801B7FE07C0608171818281938147
:100840000C5F1F4F06C06081718180E090E00E5FF9
:100850001F4FA3010E94E807882E8618FB2DFF7703
:100860003F2E36FE0DC0232D2E7FA22E891458F464
:1008700034FE0BC032FC09C0832D8E7EA82E05C02D
:10088000B82CA32C03C0B82C01C0B92CA4FE0FC0F7
:10089000FE01E80DF11D8081803321F49A2D997EAF
:1008A000A92E09C0A2FE06C0B394B39404C08A2D39
:1008B000867809F0B394A3FC11C0A0FE06C0B21460
:1008C00088F4280C922C9B180EC0B21460F4B60168
:1008D00080E290E00E949307B394F7CFB21418F42B
:1008E0002B1802C0982C212CA4FE10C0B60180E366
:1008F00090E00E949307A2FE17C0A1FC03C088E706
:1009000090E002C088E590E0B6010CC08A2D8678A0
:1009100059F0A1FE02C08BE201C080E2A7FC8DE28B
:10092000B60190E00E949307891438F4B60180E381
:1009300090E00E9493079A94F7CF8A94F301E80D10
:10094000F11D8081B60190E00E9493078110F5CFE0
:10095000222009F442CEB60180E290E00E94930783
:100960002A94F6CFF6018681978102C08FEF9FEF20
:100970002B96E2E10C94620820FD09C0FC0123FDE6
:1009800005C022FF02C073836283518340830895B0
:1009900044FD17C046FD17C0AB01BC01DA01FB01E5
:1009A000AA0FBB1FEE1FFF1F1094D1F74A0F5B1F4A
:1009B0006E1F7F1FCB01BA01660F771F881F991F1B
:1009C00009C033E001C034E0660F771F881F991F0C
:1009D0003150D1F7620F711D811D911D08950F9344
:1009E0001F93CF93DF938C01C8010E946A02EC0130
:1009F00097FD08C00E946907892BB1F7B801CE01A5
:100A00000E94CF07CE01DF91CF911F910F910895E2
:100A10008F929F92AF92BF92EF92FF920F931F938C
:100A2000CF93DF938C01D62F7A01B22E0E946A02F7
:100A30009C0133272B32310531F02D32310561F421
:100A40008B2D8068B82ED15011F480E068C0C801A9
:100A50000E946A0297FDF9CFCB2DCD7F2B2D2073FD
:100A600009F58033F9F4AA24AA94AD0E09F443C021
:100A7000C8010E946A0297FD3EC09C012F7D33276A
:100A80002835310549F4C264D250A9F1C8010E9449
:100A90006A0297FF07C02FC0B6FE02C0C26001C045
:100AA000C261DA2D812C912C540120ED280F2830C1
:100AB00080F0C4FF04C0B8010E94CF0719C02A30DB
:100AC00040F0C6FFF8CF2F7D3FEE320F363098F75B
:100AD00027504C2FC501B4010E94C8044B015C0192
:100AE000C260D15059F0C8010E946A0297FFDDCF61
:100AF000C1FD04C0AACF812C912C5401C7FF08C0AE
:100B0000B094A09490948094811C911CA11CB11C61
:100B10002C2FB501A401C7010E94BC0481E0DF9124
:100B2000CF911F910F91FF90EF90BF90AF909F904A
:100B30008F900895A0E2B0E0E0EAF5E00C944C0854
:100B40005C01962E7A01F9018E010F5F1F4F68013B
:100B500080E2D8011D928A95E9F7D50113968C9011
:100B600080E090E0612C712C30E061E070E083FC6B
:100B7000259183FE21918F01522E211103C080E027
:100B800090E092C02E3511F4009751F1432F50E0C0
:100B9000481759073CF42D3559F12D3219F47720B7
:100BA00009F103C0772009F46AC0452D46954695A2
:100BB0004695D601A40FB11D452D47708B0102C08B
:100BC000000F111F4A95E2F7A8015C91452B4C9349
:100BD000651459F0561410F45394E7CF5A94E5CFA6
:100BE00031E004C07724739401C0712C0196BFCF0B
:100BF000772019F08E8180628E83311103C08824A2
:100C0000839417C0F6019E012F5D3F4F8081809530
:100C100081932E173F07D1F7F2CFE114F10429F0A9
:100C2000D7018C93F70131967F019A94812C9920FA
:100C3000F9F0C5010E946A0297FD18C0FC01FF2768
:100C400023E0F595E7952A95E1F7EC0DFD1D208150
:100C500030E0AC014770552702C0359527954A957D
:100C6000E2F720FDDACFB5010E94CF07811087CFD0
:100C7000E114F10411F0D7011C92C80115C0422FF4
:100C8000469546954695D601A40FB11D422F477053
:100C90008B0102C0000F111F4A95E2F7A8015C9179
:100CA000452B4C93622EA2CFA096EFE00C946508E2
:100CB000A0E0B0E0EEE5F6E00C944C086C01EB012E
:100CC0005A01FC0116821782512CF601E380FE01C5
:100CD000E3FC8591E3FE8191182FEF01882309F44D
:100CE000EEC090E00E946907892B21F0C6010E94A6
:100CF000EF04EBCF153241F4FE01E3FC1591E3FE66
:100D00001191EF01153281F4C6010E946A0297FD2C
:100D1000D4C0412F50E09C01332724173507A9F296
:100D2000B6010E94CF07CBC01A3239F4E3FC15910B
:100D3000E3FE1191EF0101E001C000E0F12C20ED94
:100D4000210F2A3080F402606F2D70E080E090E087
:100D500040E20E94C804F62EFE01E3FC1591E3FE7A
:100D60001191EF01ECCF01FF03C0F11003C0A7C048
:100D7000FF24FA94183619F01C3651F010C0FE0109
:100D8000E3FC1591E3FE1191EF01183641F4086080
:100D90000460FE01E3FC1591E3FE1191EF011123C4
:100DA00009F48DC0612F70E08CE790E00E9472071B
:100DB000892B09F484C000FD07C0F5018080918073
:100DC000C50102965C0102C0812C912C1E3651F4A3
:100DD000F6014681578160E070E0202FC4010E9437
:100DE000BC0473CF1336A9F401FD02C0FF24F394B1
:100DF000C6010E946A0297FD60C08114910429F027
:100E0000F4018083C40101964C01FA94F110F0CFF3
:100E100050C01B3559F49E01A4016F2DC6010E94DC
:100E20009A05EC01892B09F044C03EC0C6010E941E
:100E3000EF0497FD42C01F3661F128F4143639F1F2
:100E4000193651F128C0133771F0153701F123C05D
:100E50008114910429F0F4016082C40101964C01CF
:100E6000FA94FF2071F0C6010E946A023C0197FDCE
:100E700008C00E946907892B59F3B601C3010E947B
:100E8000CF0781149104A9F0F401108212C000620E
:100E900003C0006101C00064202FA4016F2DC601B2
:100EA0000E940805811105C0F6018381807329F431
:100EB00006C000FD0ACF539408CF552019F0852DA8
:100EC00090E002C08FEF9FEFCDB7DEB7EFE00C945C
:100ED000650891110C944608803219F089508550AC
:100EE000C8F70895FC010590061621F00020D9F7F7
:100EF000C00108953197CF010895FC01059061501C
:100F000070400110D8F7809590958E0F9F1F08951F
:100F1000FC016150704001900110D8F780959095C8
:100F20008E0F9F1F08950F931F93CF93DF93FB01A5
:100F3000238121FD03C08FEF9FEF2CC022FF16C03D
:100F400046815781248135814217530744F4A0819B
:100F5000B1819D012F5F3F4F208331838C93268188
:100F600037812F5F3F4F2683378314C08B01EC01FD
:100F7000FB010084F185E02D0995892BE1F6D8016C
:100F800016968D919C911797019616968D939C932A
:100F90001797CE01DF91CF911F910F910895FB011B
:100FA000238120FF12C026FD10C08F3F3FEF930723
:100FB00061F082832F7D2064238326813781215035
:100FC000310926833783992708958FEF9FEF08957E
:100FD000FA01AA27283051F1203181F1E8946F936A
:100FE0006E7F6E5F7F4F8F4F9F4FAF4FB1E03ED010
:100FF000B4E03CD0670F781F891F9A1FA11D680FAE
:10100000791F8A1F911DA11D6A0F711D811D911DE0
:10101000A11D20D009F468943F912AE0269F112455
:101020003019305D3193DEF6CF010895462F4770B9
:10103000405D4193B3E00FD0C9F7F6CF462F4F7014
:10104000405D4A3318F0495D31FD4052419302D072
:10105000A9F7EACFB4E0A695979587957795679518
:10106000BA95C9F700976105710508959B01AC0118
:101070000A2E06945795479537952795BA95C9F73F
:10108000620F731F841F951FA01D0895992788273D
:1010900008952F923F924F925F926F927F928F921C
:1010A0009F92AF92BF92CF92DF92EF92FF920F93F7
:1010B0001F93CF93DF93CDB7DEB7CA1BDB0BCDBF3A
:1010C000DEBF09942A88398848885F846E847D84CD
:1010D0008C849B84AA84B984C884DF80EE80FD80E0
:1010E0000C811B81AA81B981CE0FD11DCDBFDEBF7E
:0810F000ED010895F894FFCF13
:1010F8005072657373206B657920666F7220736513
:101108007475700A0D000A0D54696D6520303A3007
:10111800303A30305D002532753A2532753A25323D
:02112800750050
:10112A000A01FFFFFF010800FFFF0008FF00FF00A0
:0E113A00000003000000001A02500200000036
:00000001FF
