:100000000C9444000C9461000C9461000C94610009
:100010000C9461000C9461000C9461000C946100DC
:100020000C945A010C9461000C9461000C946100D2
:100030000C9461000C9461000C9461000C946100BC
:100040000C9461000C9461000C9461000C946100AC
:100050000C9461000C9461000C9461000C9461009C
:100060000C9461000C9461000C9461000C9461008C
:100070000C9461000C9461000C9461006364696EDF
:100080006F70737578585B0011241FBECFEFCDBF22
:10009000DFE3DEBF1CE3A0E0BCE3E4E7F1E102C084
:1000A00005900D92AE31B107D9F72CE3AEE1BCE378
:1000B00001C01D92A532B207E1F70E94A5010C9480
:1000C0009F080C940000BF92CF92DF92EF92FF92B4
:1000D0000F931F93CF93DF93CDB7DEB72597CDBF97
:1000E000DEBF5A836B837C838D83042F8DEC489F06
:1000F000F12C1124F694F694F6949F2D990F892FE4
:10010000880F880F890F081B19E027C02F2D30E0BA
:10011000812F012E000C990B8217930789F4BD8063
:10012000CC80DB80EA802B2D4C2D6D2D8E2D0E94F6
:1001300044012B2D4C2D6D2D8E2D0E9444010CC0A1
:1001400020E040E060E080E00E94440120E040E0E8
:1001500060E080E00E94440111501123BCF619E0D8
:1001600027C0202F30E0812F012E000C990B821721
:10017000930789F4CD80DC80EB80FA802C2D4D2D07
:100180006E2D8F2D0E9444012C2D4D2D6E2D8F2D07
:100190000E9444010CC020E040E060E080E00E944A
:1001A000440120E040E060E080E00E944401115002
:1001B0001123BCF62596CDBFDEBFDF91CF911F91F5
:1001C0000F91FF90EF90DF90CF90BF9008958F92A6
:1001D0009F92AF92BF92CF92EF92FF920F931F9395
:1001E000CF93DF93CDB7DEB72F97CDBFDEBF498367
:1001F0005A836B837C838D83EE82FF820887198705
:100200002A878B869C86AD86BE86CF860E942E016D
:100210004B855C856D857E858F850E9463004E8150
:100220005F81688579858A850E94630049815A814A
:100230006B817C818D810E9463000E9439012F9621
:10024000CDBFDEBFDF91CF911F910F91FF90EF9057
:10025000CF90BF90AF909F908F900895CF93C0E0C4
:1002600004C080E00E941C02CF5FC430D0F3CF9165
:100270000895CF93C0E004C08FEF0E941C02CF5FAF
:10028000C430D0F3CF9108951F93CF93DF93C62F3F
:10029000D42F122F806E0E941C02812F0E941C02FC
:1002A0008D2F0E941C028C2F0E941C02DF91CF9187
:1002B0001F9108951F920F920FB60F9211248F93E2
:1002C000EF93FF9380911E3C8A30D8F0E0E0FCE38E
:1002D00080818F5F808380818C3398F0E5E0FCE340
:1002E00080818F5F80831092003C80818C3348F046
:1002F000EAE0FCE380818F5F80831092053C80817F
:100300001082FF91EF918F910F900FBE0F901F9071
:10031000189588ED84BF109260008091630084FF7F
:10032000FCCF88ED84BFE0E6F0E0118282E0808BB4
:100330000895E0E0FAE082E19AE786A397A381E0DE
:10034000828711828BE080830895CF93DF93CDB7AE
:10035000DEB72797CDBFDEBF0E9489010E9425022C
:10036000789482E491E99F938F930E94CD02198241
:100370000F900F9010E03AC08EE290E00E94E302EE
:10038000CE0101960E944302813031F588E591E962
:100390009F938F930E94CD02CE0102969F938F93DD
:1003A00002969F938F9302969F938F9388E691E98D
:1003B0009F938F930E94EA02CDBFDEBF019711F099
:1003C0000E947B028E8180930A3C8C818093053C45
:1003D0008A818093003C0CC03FEF88E09DE3315060
:1003E00080409040E1F700C000001F5F1A3020F20B
:1003F0000E94990178948090003C9090013CA090DC
:10040000023CB090033CC090043CE090053CF0906E
:10041000063C0091073C1091083C2091093C40911A
:100420000A3C50910B3C60910C3C70910D3C8091CA
:100430000E3C0E94E700DFCF8093240880912308C0
:100440008823E4F7809124080895E0E0F8E08DE83F
:1004500090E2808791878681806C8683EFE1FCE360
:100460008FE09CE3828393838083918308959091AE
:10047000040895FFFCCF8093020880E008950E9455
:10048000370290E00895FC019091040899232CF420
:1004900080910008808381E0089580E008959C01A8
:1004A00090910408992344F4F90180910008808315
:1004B0000E94370281E0089580E008950F931F9312
:1004C000CF93DF931F92CDB7DEB78C01CE0101969B
:1004D0000E944F028823D1F3F801808389810F9015
:1004E000DF91CF911F910F91089580E090E00E94DD
:1004F0005E0290E00895CF93DF93CFE1DCE3888143
:1005000099810E948A02888199810E948F02DF91DD
:10051000CF910895FC0193819F7C93830895CF939D
:10052000DF93EC012B8120FF33C026FF0AC02F7B15
:100530002B838E819F8101968E839F838A8190E099
:1005400029C022FF0FC0E881F9818081082E000CAC
:10055000990B009719F420622B831AC03196E88317
:10056000F9830EC0EA85FB85099597FF09C02B81A9
:10057000019611F080E201C080E1822B8B8308C0DC
:100580002E813F812F5F3F4F2E833F83992702C0EB
:100590008FEF9FEFDF91CF910895A0E0B0E0E3ED02
:1005A000F2E00C947E08AE014B5F5F4FFA0161915F
:1005B0007191AF018091213C9091223C0E940003F7
:1005C000E2E00C9497086091213C7091223C0E94DB
:1005D000B8070895A0E0B0E0E0EFF2E00C947E08E8
:1005E000AE014B5F5F4FFA0161917191AF01809154
:1005F0001F3C9091203C0E947D06E2E00C949708FD
:10060000ABE0B0E0E6E0F3E00C946E086C017B0137
:100610008A01FC0116821782838181FFCCC1CE0141
:1006200001963C01F6019381F70193FD859193FFBB
:1006300081917F01882309F4BAC1853239F493FD91
:10064000859193FF81917F01853229F4B60190E075
:100650000E94B807E7CF912C212C312CFFE1F31534
:10066000D8F08B3279F038F4803279F08332A1F40B
:10067000232D20611DC08D3261F0803369F4232D5C
:10068000216016C0832D8260382EE32DE4603E2E5B
:100690002AC0F32DF8601DC037FC2DC020ED280FB7
:1006A0002A3040F08E32B9F436FC81C1232D20640B
:1006B000322E19C036FE06C08AE0989E200D112405
:1006C000922E11C0EAE02E9E200D1124222EF32D31
:1006D000F0623F2E08C08C3621F4832D8068382EBE
:1006E00002C0883641F4F70193FD859193FF819113
:1006F0007F018111B3CF982F9F7D9554933028F4BB
:100700000C5F1F4F9FE399830DC0833631F0833711
:1007100071F0833509F059C021C0F80180818983C7
:100720000E5F1F4F88248394912C530113C028011E
:10073000F2E04F0E511CF801A080B18036FE03C0DC
:10074000692D70E002C06FEF7FEFC5010E94AD0719
:100750004C018201F32DFF773F2E16C0280122E0C5
:10076000420E511CF801A080B18036FE03C0692DF5
:1007700070E002C06FEF7FEFC5010E94A2074C013D
:10078000F32DF0683F2E820133FC1BC0822D90E0D8
:1007900088169906B0F4B60180E290E00E94B8078E
:1007A0002A94F4CFF50137FC859137FE81915F01E2
:1007B000B60190E00E94B80721102A9421E0821A25
:1007C00091088114910471F7E8C0843611F08936DC
:1007D00041F5F80137FE07C0608171818281938104
:1007E0000C5F1F4F08C060817181072E000C880BC1
:1007F000990B0E5F1F4FF32DFF763F2E97FF09C019
:1008000090958095709561957F4F8F4F9F4FF068C1
:100810003F2E2AE030E0A3010E940D08882E8618A2
:1008200045C0853731F4232D2F7EB22E2AE030E0EB
:1008300025C0932D997FB92E8F36C1F018F48835D5
:1008400079F0B5C0803719F0883721F0B0C0E92FB2
:10085000E061BE2EB4FE0DC0FB2DF460BF2E09C0BA
:1008600034FE0AC0292F2660B22E06C028E030E0F0
:1008700005C020E130E002C020E132E0F801B7FE1F
:1008800007C060817181828193810C5F1F4F06C018
:100890006081718180E090E00E5F1F4FA3010E9494
:1008A0000D08882E8618FB2DFF773F2E36FE0DC0D3
:1008B000232D2E7FA22E891458F434FE0BC032FC57
:1008C00009C0832D8E7EA82E05C0B82CA32C03C092
:1008D000B82C01C0B92CA4FE0FC0FE01E80DF11D1B
:1008E0008081803321F49A2D997EA92E09C0A2FE21
:1008F00006C0B394B39404C08A2D867809F0B394EB
:10090000A3FC11C0A0FE06C0B21488F4280C922CDF
:100910009B180EC0B21460F4B60180E290E00E9411
:10092000B807B394F7CFB21418F42B1802C0982C60
:10093000212CA4FE10C0B60180E390E00E94B8070D
:10094000A2FE17C0A1FC03C088E790E002C088E5C2
:1009500090E0B6010CC08A2D867859F0A1FE02C045
:100960008BE201C080E2A7FC8DE2B60190E00E941C
:10097000B807891438F4B60180E390E00E94B80704
:100980009A94F7CF8A94F301E80DF11D8081B601A6
:1009900090E00E94B8078110F5CF222009F442CEE2
:1009A000B60180E290E00E94B8072A94F6CFF601E3
:1009B0008681978102C08FEF9FEF2B96E2E10C9426
:1009C000870820FD09C0FC0123FD05C022FF02C0ED
:1009D0007383628351834083089544FD17C046FDAD
:1009E00017C0AB01BC01DA01FB01AA0FBB1FEE1F50
:1009F000FF1F1094D1F74A0F5B1F6E1F7F1FCB01A3
:100A0000BA01660F771F881F991F09C033E001C024
:100A100034E0660F771F881F991F3150D1F7620F9E
:100A2000711D811D911D08950F931F93CF93DF9327
:100A30008C01C8010E948F02EC0197FD08C00E9442
:100A40008E07892BB1F7B801CE010E94F407CE01C1
:100A5000DF91CF911F910F9108958F929F92AF9246
:100A6000BF92EF92FF920F931F93CF93DF938C016E
:100A7000D62F7A01B22E0E948F029C0133272B328F
:100A8000310531F02D32310561F48B2D8068B82E9F
:100A9000D15011F480E068C0C8010E948F0297FD18
:100AA000F9CFCB2DCD7F2B2D207309F58033F9F4B1
:100AB000AA24AA94AD0E09F443C0C8010E948F0273
:100AC00097FD3EC09C012F7D33272835310549F421
:100AD000C264D250A9F1C8010E948F0297FF07C0DB
:100AE0002FC0B6FE02C0C26001C0C261DA2D812CE7
:100AF000912C540120ED280F283080F0C4FF04C051
:100B0000B8010E94F40719C02A3040F0C6FFF8CFA0
:100B10002F7D3FEE320F363098F727504C2FC5010E
:100B2000B4010E94ED044B015C01C260D15059F048
:100B3000C8010E948F0297FFDDCFC1FD04C0AACF7C
:100B4000812C912C5401C7FF08C0B094A0949094BC
:100B50008094811C911CA11CB11C2C2FB501A401F7
:100B6000C7010E94E10481E0DF91CF911F910F91B5
:100B7000FF90EF90BF90AF909F908F900895A0E26C
:100B8000B0E0E5ECF5E00C9471085C01962E7A017A
:100B9000F9018E010F5F1F4F680180E2D8011D929D
:100BA0008A95E9F7D50113968C9080E090E0612C4E
:100BB000712C30E061E070E083FC259183FE21918F
:100BC0008F01522E211103C080E090E092C02E359B
:100BD00011F4009751F1432F50E0481759073CF4A6
:100BE0002D3559F12D3219F4772009F103C0772002
:100BF00009F46AC0452D469546954695D601A40F41
:100C0000B11D452D47708B0102C0000F111F4A9581
:100C1000E2F7A8015C91452B4C93651459F05614EA
:100C200010F45394E7CF5A94E5CF31E004C0772411
:100C3000739401C0712C0196BFCF772019F08E817B
:100C400080628E83311103C08824839417C0F6011B
:100C50009E012F5D3F4F8081809581932E173F0726
:100C6000D1F7F2CFE114F10429F0D7018C93F70109
:100C700031967F019A94812C9920F9F0C5010E9448
:100C80008F0297FD18C0FC01FF2723E0F595E7953B
:100C90002A95E1F7EC0DFD1D208130E0AC01477095
:100CA000552702C0359527954A95E2F720FDDACF02
:100CB000B5010E94F407811087CFE114F10411F00F
:100CC000D7011C92C80115C0422F469546954695FE
:100CD000D601A40FB11D422F47708B0102C0000F37
:100CE000111F4A95E2F7A8015C91452B4C93622EA7
:100CF000A2CFA096EFE00C948A08A0E0B0E0E3E871
:100D0000F6E00C9471086C01EB015A01FC011682AB
:100D10001782512CF601E380FE01E3FC8591E3FE8E
:100D20008191182FEF01882309F4EEC090E00E9412
:100D30008E07892B21F0C6010E941405EBCF1532D6
:100D400041F4FE01E3FC1591E3FE1191EF01153230
:100D500081F4C6010E948F0297FDD4C0412F50E05C
:100D60009C01332724173507A9F2B6010E94F40726
:100D7000CBC01A3239F4E3FC1591E3FE1191EF0177
:100D800001E001C000E0F12C20ED210F2A3080F4B9
:100D900002606F2D70E080E090E040E20E94ED0480
:100DA000F62EFE01E3FC1591E3FE1191EF01ECCF6D
:100DB00001FF03C0F11003C0A7C0FF24FA94183646
:100DC00019F01C3651F010C0FE01E3FC1591E3FE52
:100DD0001191EF01183641F408600460FE01E3FC54
:100DE0001591E3FE1191EF01112309F48DC0612FDC
:100DF00070E08CE790E00E949707892B09F484C08B
:100E000000FD07C0F50180809180C50102965C015C
:100E100002C0812C912C1E3651F4F6014681578177
:100E200060E070E0202FC4010E94E10473CF13360C
:100E3000A9F401FD02C0FF24F394C6010E948F02B1
:100E400097FD60C08114910429F0F4018083C401EE
:100E500001964C01FA94F110F0CF50C01B3559F4B3
:100E60009E01A4016F2DC6010E94BF05EC01892BD4
:100E700009F044C03EC0C6010E94140597FD42C05F
:100E80001F3661F128F4143639F1193651F128C0B2
:100E9000133771F0153701F123C08114910429F043
:100EA000F4016082C40101964C01FA94FF2071F0B4
:100EB000C6010E948F023C0197FD08C00E948E0768
:100EC000892B59F3B601C3010E94F40781149104E0
:100ED000A9F0F401108212C0006203C0006101C0D9
:100EE0000064202FA4016F2DC6010E942D058111E1
:100EF00005C0F6018381807329F406C000FD0ACF86
:100F0000539408CF552019F0852D90E002C08FEF43
:100F10009FEFCDB7DEB7EFE00C948A0891110C94E7
:100F20006B08803219F089508550C8F70895FC018C
:100F30000590061621F00020D9F7C00108953197D9
:100F4000CF010895FC010590615070400110D8F761
:100F5000809590958E0F9F1F0895FC016150704001
:100F600001900110D8F7809590958E0F9F1F0895DE
:100F70000F931F93CF93DF93FB01238121FD03C0C8
:100F80008FEF9FEF2CC022FF16C04681578124812E
:100F900035814217530744F4A081B1819D012F5F31
:100FA0003F4F208331838C93268137812F5F3F4FC2
:100FB0002683378314C08B01EC01FB010084F1858B
:100FC000E02D0995892BE1F6D80116968D919C911B
:100FD0001797019616968D939C931797CE01DF91E4
:100FE000CF911F910F910895FB01238120FF12C023
:100FF00026FD10C08F3F3FEF930761F082832F7D66
:101000002064238326813781215031092683378349
:10101000992708958FEF9FEF0895FA01AA272830A6
:1010200051F1203181F1E8946F936E7F6E5F7F4FB5
:101030008F4F9F4FAF4FB1E03ED0B4E03CD0670F31
:10104000781F891F9A1FA11D680F791F8A1F911D84
:10105000A11D6A0F711D811D911DA11D20D009F4D4
:1010600068943F912AE0269F11243019305D319316
:10107000DEF6CF010895462F4770405D4193B3E0FF
:101080000FD0C9F7F6CF462F4F70405D4A3318F0A6
:10109000495D31FD4052419302D0A9F7EACFB4E057
:1010A000A6959795879577956795BA95C9F700970F
:1010B0006105710508959B01AC010A2E06945795B0
:1010C000479537952795BA95C9F7620F731F841F07
:1010D000951FA01D08959927882708952F923F9264
:1010E0004F925F926F927F928F929F92AF92BF9238
:1010F000CF92DF92EF92FF920F931F93CF93DF93E4
:10110000CDB7DEB7CA1BDB0BCDBFDEBF09942A8883
:10111000398848885F846E847D848C849B84AA840B
:10112000B984C884DF80EE80FD800C811B81AA8198
:10113000B981CE0FD11DCDBFDEBFED010895F8946A
:02114000FFCFDF
:101142005072657373206B657920666F72207365C8
:101152007475700A0D000A0D54696D6520303A30BD
:10116200303A30305D002532753A2532753A2532F3
:02117200750006
:10117400000FFFFFFF000FFFFFFF0C0FFFFFFF003B
:0E118400000003000000003F027502000000A2
:00000001FF
