:100000000C943E000C945B000C945B000C945B0021
:100010000C945B000C945B000C945B000C945B00F4
:100020000C941C010C945B000C945B000C945B0022
:100030000C945B000C945B000C945B000C945B00D4
:100040000C945B000C945B000C945B000C945B00C4
:100050000C945B000C945B000C945B000C945B00B4
:100060000C945B000C945B000C945B000C945B00A4
:100070000C945B000C945B000C945B0011241FBE7D
:10008000CFEFCDBFDFE3DEBF1CE3A0E0BCE3E2E4E3
:10009000F3E002C005900D92A031B107D9F72CE32F
:1000A000A0E1BCE301C01D92A131B207E1F70E94BB
:1000B0006F010C949F010C9400000E94ED000895C4
:1000C000FF920F931F93CF93DF93EC01F8800DEC19
:1000D000F09EF12C1124F694F694F6949881909F5A
:1000E000012D1124069506950695000F802F880F87
:1000F000880F080F901B092F10E023C0202F30E03D
:10010000812F012E000C990B8217930769F42C8123
:100110004B816A8189810E9406012C814B816A8111
:1001200089810E9406010CC020E040E060E080E090
:100130000E94060120E040E060E080E00E940601AD
:100140001F5F1A30DCF210E023C02F2D30E0812F2A
:10015000012E000C990B8217930769F42C814B81B7
:100160006A8189810E9406012C814B816A81898183
:100170000E9406010CC020E040E060E080E00E94A8
:10018000060120E040E060E080E00E9406011F5F81
:100190001A30DCF2DF91CF911F910F91FF900895FB
:1001A000EF92FF920F931F93CF93DF93EC018B019C
:1001B0007A010E94F000C7010E946000C8010E94FD
:1001C0006000CE010E9460000E94FB00DF91CF9191
:1001D0001F910F91FF90EF9008950E94850108955F
:1001E000CF93C0E004C080E00E949601CF5FC4308E
:1001F000D0F3CF910895CF93C0E004C08FEF0E9459
:100200009601CF5FC430D0F3CF9108951F93CF9361
:10021000DF93C62FD42F122F806E0E949601812F5C
:100220000E9496018D2F0E9496018C2F0E949601AC
:10023000DF91CF911F9108951F920F920FB60F92E9
:1002400011248F93EF93FF938091103C8F5F8093E5
:10025000103C8A30E8F0E0E0FCE380818F5F80832F
:100260001092103C80818C3398F0E5E0FCE38081B3
:100270008F5F80831092003C80818C3348F0EAE0ED
:10028000FCE380818F5F80831092053C8081108227
:1002900081E080930B0AFF91EF918F910F900FBE39
:1002A0000F901F90189588ED84BF10926000809188
:1002B000630084FFFCCF88ED84BFE0E6F0E01182AC
:1002C00082E0808B0895E0E0FAE082E19AE786A37D
:1002D00097A381E0828711828BE0808308950E943A
:1002E00053010E9463010E945D00789440E05CE34A
:1002F00065E07CE38AE09CE30E94D00087E893E11C
:100300000197F1F700C00000F1CFE0E0F2E0818159
:1003100084608183E0E4F4E0808184608083808174
:100320008160808385E78093200808958093240866
:10033000809123088823E4F7809124080895F89495
:02034000FFCFED
:100342000A080000FF010800FFFF0008FF00FF008D
:00000001FF
